:020000040000FA
:100000000C945D1C0C948E1C0C948E1C0C948E1CF9
:100010000C948E1C0C948E1C0C948E1C0C948E1CB8
:100020000C948E1C0C948E1C0C948E1C0C948E1CA8
:100030000C948E1C0C948E1C0C948E1C0C948E1C98
:100040000C948E1C0C948E1C0C948E1C0C948E1C88
:100050000C948E1C0C948E1C0C948E1C0C94772883
:100060000C948E1C0C94EB280C94C1280C948E1CC0
:100070000C948E1C0C948E1C0C948E1C0C948E1C58
:100080000C948E1C0C948E1C0C948E1C0C948E1C48
:100090000C948E1C0C948E1C0C948E1C0C948E1C38
:1000A0000C948E1C0C948E1C0C948E1C0C948E1C28
:1000B0000C948E1C0C948E1C0C948E1C0C948E1C18
:1000C0000C948E1C0C948E1C0C948E1C0C948E1C08
:1000D0000C948E1C0C948E1C0C948E1C0C948E1CF8
:1000E0000C948E1C0C94751E0C94951E0C948B1EF7
:1000F0000C94672C0C9421290C94081D0C94621EFE
:100100000C9473280C94772C0C947B270C94791EF8
:100110000C947D1E0C94FA2B0C945A1E0C94561EB3
:100120000C94902C0C944E1F0C94171D0C94911E43
:100130000C946C2C0C94842C0C94651E0C94B41DA3
:100140000C94871E0C9474280C945A2C0C94831EC7
:100150000C942B1D0C943F1E0C94671D0C940A2DBF
:100160000C94012C0C944A2C0C94391D0C947F2C6B
:100170000C94E92B0C94441E0C946F1E0C946B1E73
:100180000C945E1E7F7F7F7F7F23881388138813E4
:1001900088138813881388138813887F7F7F7F7F55
:1001A0007F7F3388138813881388138813881388F4
:1001B00013881388447F70882990239420971C9A71
:1001C0001A9C189E16A0148E078B138C0B8A118B09
:1001D0000F88118A11880F8A13880E8914880D8957
:1001E00016870D8917870C8818870C8818870B8944
:1001F00019870A881A870A881A870A881A870A8834
:100200001A870A881A870A881A8809881A88098822
:100210001A8809881A88098918890A8818890A8811
:1002200018890A89168A0A89168A0B89148B0B8AFF
:10023000128C0C8A108D0C8C0C8F0D8E07910E9DDC
:1002400000880F9B018810990288119703881295E6
:10025000048813920687168E088719880A882D88C5
:100260002D882D882D872D88108417880C88178855
:100270000C8915880D8915880E8814890E891388B4
:100280000F89128910891089118A0E8A118B0B8BA4
:10029000138C078C159F169E189C1A9A1D971F94F5
:1002A00023902889507F7089289122951E991B9B45
:1002B000199D179F15A1138D078C138B0B8B118A1A
:1002C0000F8A10891189108813880F8913890E8865
:1002D00015880E8815880E8815880E8815880E8852
:1002E00015880E8815880E8815880F881388108841
:1002F00013881089118911890F8913890D89158B2C
:10030000078C169D199B1C97209320961D9A1A9D69
:10031000179F158C078C138A0C8B118A0F8A0F8AF2
:1003200011890F8913890D8915880D8915890C8804
:1003300017880C8817880B8819880A8819880A88F2
:1003400019880A8819880A8819880A8819880A88E1
:1003500019880A8819880A8819880A8917890B88D0
:1003600017880C8915890C8915890D8913890E8ABE
:10037000118A0F8A0F8A108C0C8B118D078D13A197
:10038000159F179D199B1B991E95229128894E7FB9
:100390007F17AB0AAB0AAB0AAB0AAB0AAB0AAB0AD4
:1003A000AB0AAA2E862E862E872D872D872D872E87
:1003B000872D872D872E872D872D882D872D872D9B
:1003C000882D872D882D872D882C882D882C882D89
:1003D000882C882D882C882D882D882C882D882C79
:1003E000882D882D882C882D882D882C882D882D67
:1003F000882C882D882D882D882C882D882D882D57
:10040000882C882D882D882D882D882D882C892C46
:10041000882D882D882D882D887F0C7F72892890C3
:1004200023951E981C9A1A9C189E16A0148D068D52
:10043000128B0B8B128A0E8A108911890F8A1289EE
:100440000E8913890E8815880D8915890C881689DF
:100450000B8917880B8818840F882D872D882D8885
:100460002D882D880A881987088E1687069213888A
:100470000496118803981088029A0F88019C0E88B0
:10048000009E0D92078E0C900C8C0B8E108A0B8D9B
:10049000128A0A8C14890A8B1689098A1789098994
:1004A0001988098919880989198908881B88088881
:1004B0001B8808881B8808881B8809871B88098770
:1004C0001B8809871B8809871B8809881A880A875F
:1004D00019890A8719880B8818880B8817890C884E
:1004E00016880D8815890E8814890E89128910893D
:1004F000108A108B0C8B128C078D14A1159F179DE1
:10050000199B1C971F95238F29894D7F7F1EA0154E
:10051000A014A114A114A114A114A113A213A21335
:10052000882D882D882C892C882D882D882D882C25
:10053000892C882D882D882D882C8906881C890374
:100540008E198802921788009615A113A312A41180
:10055000A5108F078E0F8C0D8C0D8B118A0D8A13B1
:100560008A0C891589108417892C892D882D882D4E
:10057000892D882D882D882D882D882D882D882DD2
:10058000882D880D841A88098819880A8918880A8C
:100590008918880B8817890B8916880C8915890D8D
:1005A0008913890E8A118A0E8B0F8A108B0D8A127D
:1005B0008D078D12A214A0169E199B1B981F9522C1
:1005C00090288A4E7F7F34862E872D882C892C890F
:1005D0002B8A2A8B298C288D288D278E268F259073
:1005E00025902491239222932293218A0088208AA5
:1005F00001881F8A02881E8B02881E8A03881D8A32
:1006000004881C8A05881B8A06881B8A06881A8A21
:100610000788198A0888188A0988188A0988178A11
:100620000A88168A0B88158A0C88158A0C88148A01
:100630000D88138A0E88128A0F88118B0F88118AF1
:100640001088108A11880F8A12880E8A13880EAFBC
:1006500006AF06AF06AF06AF06AF06AF06AF06AFF2
:1006600025882D882D882D882D882D882D882D88EA
:100670002D882D882D882D882D882D882D882D88D2
:100680007B7F6F89299023941F971D9A1A9C189E2F
:1006900016A0158C068C148B0A8B128A0E8912896F
:1006A000108911881288108912890F8814880F8880
:1006B00014880E8914880E881588128415882D8850
:1006C0002D882C882D882C892B892B892A8B288C86
:1006D0002391248F268D288F259223942195208184
:1006E000078C2B8B2C8A2C892D892D892C892D8880
:1006F0002D892D882D882D882D882D882D880D8475
:100700001A8809881A8809891889098918880B881C
:1007100018880B8916890B8915890D8914890D8A0A
:1007200012890F8A108A0F8B0D8B118D078D13A2E2
:1007300014A0169D199B1B991E95229128894E7F06
:100740006F8A279221961D9A1A9C189E16A014A2B1
:10075000128E078D118B0C8C0F8A108A0F89128ACA
:100760000D8914890D8914890D8816890C881689BC
:100770000B8818880B8818880B8818880F841888AD
:100780002D882D882D882C892C882C892C892B89C3
:100790002C892B892B8A2A8A2A8B298B298B298BB6
:1007A000298B298C288C288C288C288C278C288CA9
:1007B000288C288C288C278D278D278C288C288C9A
:1007C000298B298B298A2A8A2B892B8A2B892B8989
:1007D0002CAA0AAB0AAB0AAB09AC09AC09AC09AC50
:1007E00009AC747F78852F862F862E872D882D88DB
:1007F0002C892B8A2A8B298C278E268F2590249151
:10080000229320951E8D00881D8C02881D8B0388E5
:100810001D8A04881D8806881D8707881D8509880C
:100820001D830B881D810D882D882D882D882D888E
:100830002D882D882D882D882D882D882D882D8810
:100840002D882D882D882D882D882D882D882D8800
:100850002D882D882D882D882D882D882D882D88F0
:100860002D882D882D882D882D882D882D882D88E0
:100870002D882D882D882D882D882D882D882D88D0
:100880007F017F708A289023941F981C9A1A9C18C5
:100890009E16A0158C068C148B0A8B128A0E891258
:1008A00089108911881288108912890F8814880E7E
:1008B0008914880E8816880D8816880D8816880C6D
:1008C0008818880B8818880B8818880B8818880B5C
:1008D0008818880B8818880A881A8809881A88094D
:1008E000881A8809881A8809881A8809881A88093C
:1008F000881A8809881A8809881A8809881A88092C
:10090000881A8809881A8809881A8809881A88091B
:10091000881A8809881A8809881A8809881A88090B
:10092000881A8809881A880A8818880B8818880BFA
:100930008818880B8818880B8818880B8818880CEA
:100940008816880D8816880D8816880D8914890EDA
:100950008814880F891289108812881189108911CA
:100960008A0E8A128B0A8B148C068C15A0169E1880
:100970009C1A9A1C981F942390288A4D7F7F7F7F12
:100980007F7F7F7F7F7F7F7F7F7F4888138813886B
:10099000138813881388138813881388447F7F7FF4
:1009A0007F7F7F7F7F36910A910A910A910A910A8F
:1009B000910A917F7F7F7F7F7F7F077F7F7F7F7F10
:1009C0007F7F7F7F7F7F7F7F7F7F7F7E7F1F82070D
:1009D000840684068407827F18820784068406843E
:1009E00007827F20278E0F900D920D900180088145
:1009F000018E01820683108404850E8504850E8590
:100A000004850E8504850E8504850E8504850E8576
:100A100004850E8504850E8504850E8504850E8566
:100A200004850E8504850E8504850E850484108456
:100A30000482028E02820480029202800696099449
:100A40000C9002811B8319851985198519851985D3
:100A500019851985198519851985198519851985A6
:100A600019851A830B8E01810B900D920D900F8EBC
:100A700028278E0F900D920D9001800881018E0124
:100A8000820683108404850E8504850E8504850EF8
:100A90008504850E8504850E8504850E8504850EE6
:100AA0008504850E8504850E8504850E8504850ED6
:100AB0008504850E8504850E8504841084048202D5
:100AC0008E028204800292028006960680019407BC
:100AD00082019002810484118304850E8504850EB1
:100AE0008504850E8504850E8504850E8504850E96
:100AF0008504850E8504850E8504850E8504850E86
:100B00008504850E8504850E8504850E8504850E75
:100B100085058310830781018E01810B900D920D55
:100B2000900F8E28278E0F900D920D9001800C8EC5
:100B300001821B84198519851985198519851985DF
:100B400019851985198519851985198519851A84B5
:100B50001C821E805D811B83198519851985198565
:100B60001985198519851985198519851985198595
:100B7000198519851A831C817F24278E0F900D9269
:100B80000D900B81018E0B831A85198519851985A6
:100B90001985198519851985198519851985198565
:100BA000198519841A82028E0A8002920A9606809A
:100BB00001940782019002810484118304850E85CB
:100BC00004850E8504850E8504850E8504850E85B5
:100BD00004850E8504850E8504850E8504850E85A5
:100BE00004850E8504850E8504850E8504850E8595
:100BF00004850E85058310830781018E01810B908A
:100C00000D920D900F8E28278E0F900D920D900B48
:100C100081018E0B831A8519851985198519851906
:100C200085198519851985198519851985198519D4
:100C3000841A82028E0A8002920A9609940C90020B
:100C4000811B8319851985198519851985198519B8
:100C50008519851985198519851985198519851AA3
:100C6000830B8E01810B900D920D900F8E287F19B2
:100C700080088112820683108404850E8504850E07
:100C80008504850E8504850E8504850E8504850EF4
:100C90008504850E8504850E8504850E8504850EE4
:100CA0008504850E8504850E8504850E85048410D3
:100CB000840482028E0282048002920280069609D7
:100CC000940C9002811B8319851985198519851942
:100CD0008519851985198519851985198519851924
:100CE0008519851A831C817F24278E0F900D920D04
:100CF0009001800C8E01821B841985198519851934
:100D000085198519851985198519851985198519F3
:100D10008519851A840A8E02820892028006960935
:100D2000940C9002811B83198519851985198519E1
:100D300085198519851985198519851985198519C3
:100D40008519851A830B8E01810B900D920D900FE2
:100D50008E28278E0F900D920D9001800C8E0182AF
:100D60001B84198519851985198519851985198592
:100D70001985198519851985198519851A840A8E89
:100D800002820892028006960680019407820190F2
:100D900009841A8519851985198519851985198573
:100DA00019851985198519851985198519851A8354
:100DB0001C81018E0F900D920D900F8E287F19804F
:100DC0001D821B8419851985198519851985198531
:100DD00019851985198519851985198519851B8323
:100DE0001D811E805D811B831985198519851985D3
:100DF0001985198519851985198519851985198503
:100E0000198519851A831C817F24278E0F900D92D6
:100E10000D9001800881018E018206831084048573
:100E20000E8504850E8504850E8504850E85048552
:100E30000E8504850E8504850E8504850E85048542
:100E40000E8504850E8504850E8504850E85048532
:100E50000E85048410840482148204801880248007
:100E60001E8215810484118304850E8504850E85F8
:100E700004850E8504850E8504850E8504850E8502
:100E800004850E8504850E8504850E8504850E85F2
:100E900004850E8504850E8504850E8504850E85E2
:100EA000058310830781018E01810B900D920D90B7
:100EB0000F8E287F7F7F7B820784068406840782CB
:100EC000107F7F7F7F3F7F7F10860C83028B09839B
:100ED000018D0883008F07880586068609840685AC
:100EE0000B8405840D8305840D8305840D840483A0
:100EF0000F8304830F8304830F8304830F8304838E
:100F00000F8304830F8304830F8304830F8304837D
:100F10000E8404840D8305840C8405850B8405866A
:100F20000984068805860683008F0783018D088360
:100F3000028B098304860C83188318831883188313
:100F400018831883188318831883327F7F7F058660
:100F500007860A830289048A0883008C028C07832F
:100F6000008D008E0687058905840685088608841D
:100F700005840A840A8305840A840A8305830B8313
:100F80000B8305830B830B8305830B830B83058303
:100F90000B830B8305830B830B8305830B830B83ED
:100FA00005830B830B8305830B830B8305830B83E3
:100FB0000B8305830B830B8305830B830B830583D3
:100FC0000B830B8305830B830B8305830B830B83BD
:100FD00005830B830B8305830B830B8305830B83B3
:100FE0000B8305830B830B8305830B830B837F7F2D
:100FF0007F7A7F7B880F8D0A900991078506850689
:10100000840A8405830C8305830C8305830C831673
:101010008315840E8B09900792068D01830588073E
:101020008305840B8304840C8304830D8304830D64
:101030008304830C8404830B850484098605840659
:101040008A038F0184048D0284058A058307867FC5
:101050007F357F1A8409840984098409847F3D844B
:1010600009840984098409847F7422880F8C0C8F79
:101070000991078605860585098405840B84048308
:101080000D8303840D8303830F8302830F83028305
:101090000F8302830F8302830F8302840D840383F3
:1010A0000D8403840B8504840986048605880594D1
:1010B000068E0083078B02830A86048316831583BA
:1010C000168303830E8303830D8403840C830583BB
:1010D0000B84058409850685058608900A8E0C8B8D
:1010E00011867F7F332485118B0C8F09910786052C
:1010F000860684098405840B8404840B8404830D90
:101100008304830D8304830D8304840B8405830B84
:10111000830684098407850585098F0B8D0B8F094C
:10112000910785078505840B8404830D8303840D53
:101130008402830F8302830F8302830F8302830F52
:101140008302830F8302840D8402840D8403840B45
:10115000840486078605930791098F0D897F7F3167
:101160003796039603960396168315831583158386
:1011700015841484148415831584148415841484AC
:10118000158315841583158415841583158415839B
:101190001683158415831683168316831584158389
:1011A000168316837F7F532486118B0C8E0A90083A
:1011B0008605850685098405840B8305830C8403D5
:1011C000840D8303830E83038316831583168304A0
:1011D000860A83028B0783008E06940588058604A1
:1011E00086098404850B8403840D8303840D8402A3
:1011F000830F8302830F8302830F8302830F830293
:10120000830F8303830D8403830D8304840B840580
:10121000840985058605860791098F0C8C0F887FC8
:101220007F313A91089108910891088216831683BC
:101230001683168217821782168302870B83008B10
:1012400009910892078605860684098505830B8423
:1012500016831684168316831683168316830383D8
:101260000E8303830D8403830D8304840B84058420
:101270000985058605860791098F0B8D0F877F7F6E
:1012800032458315841485138613861287118300D3
:101290008311830083108301830F8302830E8402F2
:1012A000830E8303830D8304830C8305830B8405E2
:1012B000830B8306830A83078309840783098308D2
:1012C000830883098307830A83079702970297029B
:1012D0009711831683168316831683168316831637
:1012E0008316837F7F4A23870F8D0B900891078693
:1012F00005860684098405840B8404840B84048396
:101300000D8304830D8304830D8315841584148455
:1013100014850D8B0E89108B0E8C14861584168403
:10132000158402830F8302830F8302830F83028459
:101330000D8402840C8503840B840485098505864D
:1013400005860791098F0B8D0F877F7F4D248710AE
:101350008C0B8F0991088505860684098406840A0A
:101360008306830B8404840C8304830D8304830D20
:101370008304830D831683158415841484148513C4
:101380008512861187108810880F881087118612A1
:101390008513851484148415831683159603960388
:1013A0009603967F7F4529821782168316831584BC
:1013B000148512870D8C0D8C0D8700830D8403839B
:1013C0001683168316831683168316831683168355
:1013D0001683168316831683168316831683168345
:1013E0001683168316831683168316831683168335
:1013F0007F7F4C23870F8D0B8F099107860586060B
:1014000084098406830B8305840B8404830D830481
:10141000830D8304830D8303830F8302830F830271
:10142000830F8302830F8302830F8302830F830260
:10143000830F8302830F8302830F8302830F830250
:10144000830F8302830F8302830F8302830F83033F
:10145000830D8304830D8304830D8304840B84052F
:10146000830B8306840984068605860791098F0B02
:101470008D0F877F7F327F7F7F55840984098409A0
:101480008409847F387F7F458A058A058A058A7F9B
:101490007F7F2B7F7F7F7F3F191183098101810728
:1014A0008103820380008006810181008007837FA1
:1014B0007F2C01830A820A810A810A810A810A81BA
:1014C0000A810A810A810A810B810B8208810981C4
:1014D0000A810A810A810A810A810A810A810A81B4
:1014E000098207831304810A810A810A810A810A19
:1014F000810A810A810A810A810A810A810A810A94
:10150000810A810A810A810A810A810A810A810A83
:10151000810A810A810A81120683078209810A8170
:101520000A810A810A810A810A810A810A81098164
:1015300008820B810B810A810A810A810A810A8152
:101540000A810A810A810A820A830E488901890870
:101550008207820782078208810882078207820742
:101560008208890189544D820682008106810181A9
:101570000681028104810381048103810481048145
:101580000281058102810581028106810081078136
:10159000008107810081088209820982098109820C
:1015A00006840783144E810681018204820281042D
:1015B00081048102810582008206840882088406F3
:1015C00082008205810281048104810282048201F9
:1015D0008106815B6B810482048100810482048125
:1015E00000810480008004810181028100810281E8
:1015F00002810281008102810281028100810281D7
:1016000002810280028002810381008102810081C7
:1016100004810081028100810481008102810081B6
:101620000582048206820482068204827F01478149
:101630000681008106810181048102810481028189
:101640000481038102810481028104810281058178
:101650000081068100810684078208825855810630
:101660008102810681028106810281068102810652
:101670008102810681028106810281068102810642
:101680008102810582028203830386008104840132
:1016900081620F81048104810481028500850281B9
:1016A0000481048104810481048104810481048112
:1016B00004830382314A8405870282038102810503
:1016C0008101810A840786078409810181058101DE
:1016D000820382028704855631810082018501825E
:1016E00004810581058105810581058105810581CB
:1016F000058105813B5E83018104860081038301AE
:1017000084038105820282068102810781028107AA
:1017100081028107810282068103810582038301A0
:101720008404860081068301810C810C810C810C6C
:10173000810C811F5B810183068100860484018303
:10174000038205810381068202810781028107816C
:10175000028107810281068202820581038401835E
:10176000038100860481018306810C810C810C8138
:101770000C81285E8407880483028303810681022A
:10178000820682018108810181088101810881012D
:101790008206820281068103830283048807846DA6
:1017A0005B810184058100860483038203820581B5
:1017B00003810681038106810381068103810681FD
:1017C00003810681038106810381068103810681ED
:1017D000038106816A7F058101830383058100857A
:1017E00000860483028402820382048204810381CE
:1017F00005810581038105810581038105810581BD
:1018000003810581058103810581058103810581AE
:10181000058103810581058103810581058103819E
:10182000058105817F1B078103810381038103817A
:101830000381038103810381038103810381038188
:10184000038103810381038103812B1981098109AC
:10185000810981098104820181038202810282035C
:10186000810182048100820585058604820181044C
:101870008102820381038103810382028104810248
:10188000810482530781038103810F8103810381D6
:101890000381038103810381038103810381038128
:1018A0000381038103810381038103810183018219
:1018B000080781038103810F810381038103810371
:1018C00081038103810381038103810381038103F8
:1018D000812B10810C810C810C810C810C81018485
:1018E00005810086048303820382058103810681CA
:1018F00003810681038106810381068103810681BC
:1019000003810681038106810381068103810681AB
:101910006A5E83018104860081038301840381055B
:10192000820281078102810781028107810281078A
:10193000810282068103810582038301840486007B
:1019400081068301810C8102810781028106820365
:1019500082038204890685130A8302840281058139
:101960000581038600860281058105810581058147
:101970000581058105810581058105813B58830726
:1019800087048301830381058102820681018B0123
:101990008B01810B820B81058202830183048707FF
:1019A000836619810C810C810C810C810683018175
:1019B00004860081038301840381058202820681FB
:1019C00002810781028107810281078102820681EB
:1019D00003810582038301840486008106830181DB
:1019E0006A5283068703830182038105810182098C
:1019F000810A810A810A82058102810581028301AF
:101A000082048706835E10810C810C810C810C811D
:101A10000C81018306810086048401830382058191
:101A20000381068202810781028107810281078189
:101A3000028106820282058103840183038100867C
:101A4000048101836D578505880481048203810523
:101A5000810B81058703890282058102810681024B
:101A600081068102820383038600830284028261ED
:101A70000B83038501820182008103810081038140
:101A800000820182018503837F1A7F7F1D8C2610CF
:101A90008207810081058102810381048101810621
:101AA000817F6F0984038406810681068106810691
:101AB00081068106810681068106810681068106EE
:101AC00081068106810681068106810681038403E1
:101AD000841401800B800B810B800B800B810B80A9
:101AE0000B800B810B800B800B810B800B800B819B
:101AF0000B800B800B810B800B800B810B800B808C
:101B00000B810B800E0B8403840381068106810602
:101B1000810681068106810681068106810681068D
:101B2000810681068106810681068106810681067D
:101B300084038412118C028C0C820B820B820C8128
:101B40000C810C820B820B820C810C810C820B822B
:101B50000B820B820C8D018D700F8209820082072F
:101B60008202810781038205820481058106810347
:101B70008107820182088101810A830B830C810D18
:101B8000810D810D810D810D810D810D81760F817A
:101B90000881018206820281068104810481058216
:101BA0000282068102810881008109840A820B82F7
:101BB0000A810081088200820781028106810481F6
:101BC00004820482038106810282068200820882E6
:101BD00068168206820682008106820681018106DD
:101BE00082068101820481008104820281048100D5
:101BF00081048103810481008104810381048100C7
:101C000081048103820281028102820481028102B5
:101C100081028105810281028102810581028102A6
:101C20008102810582008104810082068100810495
:101C30008100810781008104810081078100810486
:101C40008100810783068308820682098206827FDB
:101C5000250E8208820081088101810881018108A6
:101C6000810281068103810681038106810481044A
:101C70008105810481058104810681028107810239
:101C80008107810281088100810981008109840A1C
:101C9000820B826E1381098103810981038109818D
:101CA00003810981038109810381098103810981FC
:101CB00003810981038109810381098103810981EC
:101CC00003810981038109810381098103820782DC
:101CD00004820582068908877F020D9B05810B819E
:101CE0000B810B810B810B810B810B810B810B8194
:101CF0000B810B810B810B810B810B816714850795
:101D0000890482058203810781038107810381079A
:101D10008202820D840B860B850C830D8201820862
:101D200081028108810281088102830582038A067B
:101D30008673128B048C03810882028109810281DF
:101D40000981028109810281098102810881038C54
:101D5000038B048107820381088103810882028149
:101D6000098102810981028109810281098102813F
:101D70000981771886098A0683048304820882030E
:101D8000810A8102820A8201810C8101810C810118
:101D9000810C8101810C8101810C8101810C810107
:101DA0008206800282028105820181038205850408
:101DB000830483068C07860182108073118A048B4A
:101DC00003810782028108810281088102810881E2
:101DD0000281088102810782028B038A04810D81BE
:101DE0000D810D810D810D810D810D817B1886097D
:101DF0008A068304830482088203810A8102820A9C
:101E00008201810C8101810C8101810C8101810C95
:101E10008101810C8101810C8101820A8202810A87
:101E2000810382088204830483068A09867F0A1359
:101E3000820881038208810383078103840681036A
:101E40008100810681038100820581038101820472
:101E50008103810281048103810282038103810362
:101E60008202810381048102810381048201810352
:101E7000810582008103810681008103810684033C
:101E800081078303810882038108827F16820A8288
:101E9000038308830383088303830883038100810A
:101EA0000681008103810081068100810381008118
:101EB0000681008103810181048101810381018107
:101EC00004810181038101810481018103810281F7
:101ED00002810281038102810281028103810281E8
:101EE00002810281038103810081038103810381D7
:101EF00000810381038103840381038104820481BF
:101F00000381048204817F140E810A810A810A817F
:101F10000A810A810A810A810A810A810A810A8169
:101F20000A810A810A810A810A8A018A5A12810871
:101F30008202810782038106820481058205810471
:101F40008206810382078102820881018209810061
:101F5000830987088301820782038206810581063F
:101F6000810582058106820481078203810882023D
:101F70008109827615810A810A810A810A810A8192
:101F80000A810A810A810A810A810A810181068106
:101F90000181068101810681018204820288048612
:101FA0005E07810381038103810381038103810330
:101FB0008103810381038103810381038103810301
:101FC00081038103812B13810981038109810381AD
:101FD00009810381098103810981038109810381C9
:101FE0000981038D038D03810981038109810381A7
:101FF00009810381098103810981038109810381A9
:10200000098103810981038109817F1886098A0674
:10201000820583048208810481098202820F811073
:1020200081108105870281058702810B8102810B66
:102030008102820A81038109820382078304830467
:102040008405890081078503807F06108B028B023F
:10205000810C810C810C810C810C810C8A038A0318
:10206000810C810C810C810C810C810C810C8173A1
:10207000118C028C02810D810D810D810D810D81EC
:102080000D8B038B03810D810D810D810D810D81E0
:102090000D8C028C701389078B05810683048108DF
:1020A00082038109810381098202810A8102810AF6
:1020B0008102810A8102810A8102810A8102810AE8
:1020C00081028109820281098103810882038106DC
:1020D00083048B05897F031786088A05830483039D
:1020E00082088103810A8101820A8101810F810FA7
:1020F000810F810F810F810B8101820A8102810989
:10210000820282088104830483058A08867F021282
:102110008A058C038107820381088103810881037A
:102120008108810381088103810782038A058C036A
:10213000810782038109810281098102810981026B
:1021400081098102810782038C038A7A15830B83BC
:102150000B830A8101810981018109810181088143
:102160000381078103810781038106810581058140
:1021700005810589048B0381078103810781028121
:10218000098101810981008209826F21880D8206FF
:102190008209820A8107810D8105810F81048006F1
:1021A0008301800381028104810283038102810310
:1021B00081048104810181048104810481018103FE
:1021C00081058104810181038105810481018103ED
:1021D00081048104810281038104810481028103DD
:1021E00081048103810481038102820281058104CB
:1021F0008301840781178117810B81098205830D73
:10220000876C108504880382038201820581018125
:10221000068101810681098208820882088209817B
:10222000098209822382098209825F62820C820C00
:10223000830C820D8108820783078208827F1551F3
:1022400086018613860186636B8208820783078274
:1022500008810D820D820C820C827F0C2B820382FE
:102260000382348203820382058004810480048116
:10227000172B8203820382348203820382321F85FA
:10228000058804820382028205810281078101811F
:102290000781018107810182058202820383028A0C
:1022A000048401810B810181068102810681038101
:1022B00004820388058665208307870581038104DE
:1022C00081058103810581038105810481038106E4
:1022D00085068704820382028107810181078101CB
:1022E0008107810181078102820382038905856557
:1022F0001C8B018B0A810A8209820A810A820A8167
:102300000A810B810A820A810B810B810A810B8170
:102310000B8169208406880382048103810681027F
:1023200081068101810B810184048A028303820278
:102330008205820181078101810781018107810274
:102340008105820282038204880585651D890389CF
:1023500003810B810B810B81008405890283038239
:10236000028106820B810B810B8101810781018231
:10237000058202820382038905856524810A820918
:10238000830983088100810781018106810281061A
:102390008102810581038104810481038105810318
:1023A0008B018B09810B810B810B81641F85068753
:1023B0000482038203810581028205810B810A82E6
:1023C000078408850B820B810181078101810781C8
:1023D000018205820282038203890585651F8505C6
:1023E00089038203820282068101810781018107BC
:1023F000810B810A82088307840684078308820987
:10240000820A810B8B018B6222810B810A820785F4
:1024100007850B810B810B810B810B810B810B815C
:102420000B810B810B810B810B8166208307870455
:102430008301830381058102820582018107810175
:102440008107810181078101810781018107810164
:102450008107810181078101820582028105810353
:1024600083018304870783660D81058105800581CB
:10247000058105800581058105800581058105802F
:10248000058105810580058105810580058105811E
:102490002D7182038203823258850185687182031F
:1024A000820382058004810480048117538107819F
:1024B00007810487018704810781078167108109EB
:1024C00081098106800181018002890385068306D6
:1024D00081018104820182048003807F36078106A6
:1024E00080068106800681058105810681058105BA
:1024F00081058105810581058105810581058104AD
:10250000810581058105800581058005810D0D818D
:10251000058005810580058105810581048105818E
:10252000058105810581058105810581058105817B
:1025300006810581058106800681068006810706E1
:1025400082028202820480038102817415840A86D9
:102550000882028207810481078104810781038246
:10256000088101820A840A830B8503810382018228
:102570000281028203820181028105840381068334
:102580000381078104820485038801820385048214
:10259000762D8207810586058006810281048105EA
:1025A0008104810281068104810280078104810106
:1025B00081088102810280098601800C82028102E9
:1025C000820C8001860980028102810881018104D8
:1025D00081078002810481068102810481058104D2
:1025E000810281068005860581078207807F0C1F96
:1025F00085058903820382028107810181078101A8
:10260000810B820B810A8707810B810B810B810A69
:10261000810B860280018B01810483632E810181FD
:102620000C8002800D8002800C8101810C80028070
:102630000D800280088D088002800D8002800D8050
:102640000280088D088002800D8002800C8101814B
:102650000C8002800D8002800C8101817F0D098039
:10266000018003800180038001800380018003805A
:10267000018003800180038001807F110A81058130
:10268000058105810581058105810581058105811A
:102690000581058105811581058105813A7F01004C
:1026A000003048483000000000000000000000003A
:1026B0000000324C0000000000000000000000009C
:1026C00040202020202020102020202020204000FA
:1026D00000404040404040404040404040400000BA
:1026E000102020202020204020202020202010000A
:1026F0000000000000FC0408304080FC00000000E6
:10270000000000000084848484844C340408700039
:1027100000000000008888502050888800000000D9
:1027200000000000008282829292AA440000000011
:102730000000000000828282824428100000000015
:10274000000000000084848484844C340000000075
:102750000000004040E040404040403000000000A9
:102760000000000000708880700888700000000081
:102770000000000000B0C880808080800000000061
:102780000000000000344C8484844C3404040600AF
:102790000000000000B0C8848484C8B0808080003D
:1027A00000000000003844828282443800000000AB
:1027B0000000000000B0C88484848484000000000D
:1027C0000000000000ACD2929292929200000000B1
:1027D0000000C040404040404040404000000000F9
:1027E00000008080808890A0C0A090880000000039
:1027F0000000001000301010101010101090600039
:1028000000000040004040404040404000000000C8
:102810000000808080B0C88484848484000000002C
:102820000000000000304C8484844C3404087000A4
:1028300000003048404040E0404040400000000080
:102840000000000000384484F88044380000000094
:102850000000000404344C8484844C3400000000E4
:1028600000000000003844808080443800000000F0
:102870000000008080B0C8848484C8B000000000DC
:102880000000000000700804748C8C7400000000CC
:102890000000404040200000000000000000000058
:1028A00000000000000000000000000000FF000029
:1028B0000000000000000000000000000000000018
:1028C000102844000000000000000000000000008C
:1028D00000000000000000000000000000000000F8
:1028E00000E020202020202020202020E0000000E8
:1028F00000040408081010202040408080000000E0
:1029000000E080808080808080808080E000000007
:102910000000FE0204081010204080FE00000000AD
:102920000000828282442810101010100000000065
:102930000000828244281010284482820000000097
:10294000000000000080808080808088808880492E
:102950000055005500220022000000000000000089
:102960000000828282824444282810100000000067
:1029700000008282828282828282443800000000CB
:102980000000FE10101010101010101000000000B9
:10299000000038448280601C02824438000000003D
:1029A0000000F884828284F890888482000000000D
:1029B0000000384482828282828244380806000005
:1029C0000000F88482828284F88080800000000009
:1029D00000003844828282828282443800000000F3
:1029E0000000C2C2A2A292928A8A868600000000DB
:1029F0000000000000C180C180A280A28094809469
:102A00008088808880808080800000000000000036
:102A10000000808080808080808080FC000000003A
:102A20000000848890A0C0A09088848200000000EC
:102A3000000002020202020202824438000000008A
:102A40000000E04040404040404040E000000000C6
:102A5000000084848484FC848484848400000000D6
:102A600000003C428080809C8282423C000000004A
:102A70000000FE808080F880808080800000000060
:102A80000000FE808080FC80808080FE00000000CE
:102A90000000F88482828282828284F80000000032
:102AA00000003C42808080808080423C000000002A
:102AB0000000F8848284F884828284F80000000098
:102AC00000001010282844447C828282000000000C
:102AD00000003C4299A5A5A5A59E403E000000002F
:102AE00000003844820204081010001000000000AA
:102AF00000000080402010081020408000000000EE
:102B0000000000000000F800F800000000000000D5
:102B10000000000810204080402010080000000045
:102B20000000000000C0C000C0C0408000000000E5
:102B30000000000000C0C000C0C000000000000095
:102B4000000038448282463A020204780000000005
:102B50000000384482443844828244380000000037
:102B600000007E020204040808101010000000009B
:102B700000003C408080B8C48282443800000000DD
:102B80000000FC808080F8040202847800000000CD
:102B90000000040C14244484FE040404000000001B
:102BA00000007884020438040202847800000000E7
:102BB0000000384482020418204080FE000000001B
:102BC00000001030501010101010107C0000000099
:102BD000000038444482828282444438000000006D
:102BE00000040408081010202040408080000000ED
:102BF00000000000000000000000C0C00000000055
:102C000000000000000000F80000000000000000CC
:102C100000000000000000000000C0C04080000074
:102C200000000000002020F820200000000000002C
:102C30000000001092543854921000000000000070
:102C4000C020100808040404040408081020C00070
:102C50000C102040408080808080404020100C007C
:102C60000040404080000000000000000000000024
:102C70000000205088885020528C8C730000000087
:102C800000006191926408102649898600000000C6
:102C900000003C4240407040704040FE0000000098
:102CA0000000242424FF2424FF2424240000000006
:102CB00000A0A0A000000000000000000000000034
:102CC00000004040404040404040004000000000C4
:102CD0000000000000000000000000000000001DD7
:102CE0001D1D1D1D1D1D1D1D1D1D1D1D1D1D1D37FA
:102CF0003737373737373737371D1D1D1D1D1D1D1A
:102D00001D1D1D1D1D1D1D1D1D1D1D1D1D1D1D1DF3
:102D10001D1D1D1D1D1D1D1D1D1D1D1D1D1D1D1DE3
:102D20001D1D1D1D1D1D1D1D1D1D1D1D1D1D1D1DD3
:102D30001D1D1D1D1D1D1D1D1D1D1D1D1D1D1DBB25
:102D400009BB09BB09BB09BB09BB09BB09BB09BB63
:102D500009BB09BB09BB09BB099D097C09BB0982E9
:102D600008E3073F078106C4050B051B048F03A575
:102D700002B5018401BB09BB09BB09BB09BB09BB87
:102D800009BB09BB09BB09BB09BB09BB09BB09BB23
:102D900009BB09BB09BB09BB09BB09BB09BB09BB13
:102DA00009BB09BB09BB09BB09BB09BB09BB09BB03
:102DB00009BB09BB09BB09BB09BB09BB09BB09BBF3
:102DC00009BB09BB09BB09BB09BB09BB09BB09BBE3
:102DD00009BB09BB09BB09BB09BB09BB09BB09BBD3
:102DE00009BB09BB09BB09BB09BB09BB09BB09BBC3
:102DF00009BB09BB09BB09BB09BB09BB09BB090C62
:102E00000C0C0C0C0C0C0C0C0C0C0C0C0C0C0C20EE
:102E10002020202020202020200C0C0C0C0C0C0C3E
:102E20000C0C0C0C0C0C0C0C0C0C0C0C0C0C0C0CE2
:102E30000C0C0C0C0C0C0C0C0C0C0C0C0C0C0C0CD2
:102E40000C0C0C0C0C0C0C0C0C0C0C0C0C0C0C0CC2
:102E50000C0C0C0C0C0C0C0C0C0C0C0C0C0C0CC1FD
:102E60000EC10EC10EC10EC10EC10EC10EC10EC1EA
:102E70000EC10EC10EC10EC10EC10EB30EC10E0A9F
:102E80000EBD0D520DE90C6E0C070C7A0B240B7164
:102E90000AE409CC09C10EC10EC10EC10EC10EC19A
:102EA0000EC10EC10EC10EC10EC10EC10EC10EC1AA
:102EB0000EC10EC10EC10EC10EC10EC10EC10EC19A
:102EC0000EC10EC10EC10EC10EC10EC10EC10EC18A
:102ED0000EC10EC10EC10EC10EC10EC10EC10EC17A
:102EE0000EC10EC10EC10EC10EC10EC10EC10EC16A
:102EF0000EC10EC10EC10EC10EC10EC10EC10EC15A
:102F00000EC10EC10EC10EC10EC10EC10EC10EC149
:102F10000EC10EC10EC10EC10EC10EC10EC10E0CEE
:102F20000C0C0C0C0C0C0C0C0C0C0C0C110F0C1BCA
:102F30001B1B1B1B1B1B1B1B1B0F0C0C0C0C0C0C47
:102F40000C0C0C0C0C0C0C0C0C0C0C0C0C0C0C0CC1
:102F50000C0C0C0C0C0C0C0C0C0C0C0C0C0C0C0CB1
:102F60001B0C0C0C0C0C0C0C0C0C0C0C2A0C0C1D63
:102F70000C0C0C0C0C0C0C0C0C0C0C070C0C0C930F
:102F80001493149314931493149314931493149309
:102F9000149314931493149314851476149314F3C4
:102FA00013A6134D13E61281122212A7116011E528
:102FB000106A10521093149314931493149314934F
:102FC00014931493149314931493149314931493C9
:102FD00014931493149314931493149314931493B9
:102FE00014931493149314931493149314931493A9
:102FF0001493149314931493149314931493149399
:1030000014F20F931493149314931493149314932E
:103010001493149314931493144B0F93149314C692
:103020000E9314931493149314931493149314936E
:1030300014931493149314931493149314931405E6
:103040000808130E15110608080C0A070807080ED1
:103050000E0E0E0E0E0E0E0E0E07070E090E0D1999
:1030600010111212100F1312060D110D151213105C
:103070001311100E120F170F1010090D090C0D0966
:103080000E0F0D0F0E080F0F06060C06160F0F0F72
:103090000F080C070E0C120D0D0C0D0D0D0F019DE0
:1030A000267C265E261C26EF2591254C253F250EE5
:1030B00025DD24BD24AC249D249824912468242B50
:1030C000240824DD23AC237B234C231323F022B7D5
:1030D000227E2271225C2248223F222B2202228B56
:1030E000214C210F21D720952070204B200B20C68A
:1030F0001FA11F741F2D1F081F8C1E2F1EED1DBC2E
:103100001D731D321DFD1CDA1C941C511CD11B8E1D
:103110001B591B341B051BD21AA31A8F1A8A1A704B
:103120001A451A061AE119A2197D1958191119D24E
:1031300018B11884184B182618D517A01773173410
:1031400017F516D816B51692165D162E16D415A5B7
:103150001566154B151815E514B21499149814003A
:10316000000000003E5B4F5B3E3E6B4F6B3E1C3EE3
:103170007C3E1C183C7E3C181C577D571C1C5E7FF7
:103180005E1C00183C1800FFE7C3E7FF0018241876
:1031900000FFE7DBE7FF30483A060E2629792926AB
:1031A000407F050507407F05253F5A3CE73C5A7F95
:1031B0003E1C1C08081C1C3E7F14227F22145F5FEB
:1031C000005F5F06097F017F006689956A60606025
:1031D000606094A2FFA29408047E040810207E2060
:1031E0001008082A1C08081C2A08081E10101010B5
:1031F0000C1E0C1E0C30383E3830060E3E0E0600FB
:103200000000000000005F00000007000700147FBE
:10321000147F14242A7F2A12231308646236495625
:1032200020500008070300001C2241000041221C1E
:10323000002A1C7F1C2A08083E0808008070300005
:103240000808080808000060600020100804023E1A
:103250005149453E00427F4000724949494621415B
:10326000494D331814127F1027454545393C4A49CA
:103270004931412111090736494949364649492909
:103280001E00001400000040340000000814224119
:103290001414141414004122140802015909063EA2
:1032A000415D594E7C1211127C7F494949363E419D
:1032B0004141227F4141413E7F494949417F0909BE
:1032C00009013E414151737F0808087F00417F4159
:1032D000002040413F017F081422417F4040404090
:1032E0007F021C027F7F0408107F3E4141413E7FE8
:1032F000090909063E4151215E7F091929462649DF
:1033000049493203017F01033F4040403F1F2040B5
:10331000201F3F4038403F631408146303047804BF
:10332000036159494D43007F414141020408102087
:10333000004141417F0402010204404040404000FE
:103340000307080020545478407F28444438384408
:10335000444428384444287F385454541800087E84
:10336000090218A4A49C787F0804047800447D40D6
:10337000002040403D007F1028440000417F400075
:103380007C047804787C080404783844444438FC8D
:103390001824241818242418FC7C08040408485411
:1033A00054542404043F44243C4040207C1C2040CE
:1033B000201C3C4030403C44281028444C909090C5
:1033C0007C4464544C4400083641000000770000FF
:1033D000004136080002010204023C2623263C1E5E
:1033E000A1A161123A4040207A38545455592155D0
:1033F00055794121545478412155547840205455F1
:1034000079400C1E5272123955555559395454543D
:103410005939555454580000457C410002457D42BD
:103420000001457C40F0292429F0F0282528F07C73
:10343000545545002054547C547C0A097F49324934
:103440004949323248484832324A4848303A414184
:10345000217A3A42402078009DA0A07D394444441E
:10346000393D4040403D3C24FF2424487E4943668A
:103470002B2FFC2F2BFF0929F620C0887E09032063
:10348000545479410000447D413048484A32384024
:1034900040227A007A0A0A727D0D19317D26292987
:1034A0002F28262929292630484D40203808080889
:1034B0000808080808382F10C8ACBA2F102834FAAA
:1034C00000007B000008142A142222142A1408AADF
:1034D000005500AAAA55AA55AA000000FF00101026
:1034E00010FF00141414FF001010FF00FF1010F064
:1034F00010F0141414FC001414F700FF0000FF0077
:10350000FF1414F404FC141417101F10101F101FC4
:103510001414141F00101010F0000000001F1010F1
:1035200010101F10101010F010000000FF101010ED
:10353000101010101010FF10000000FF140000FF0A
:1035400000FF00001F10170000FC04F414141710F3
:10355000171414F404F40000FF00F71414141414E6
:103560001414F700F7141414171410101F101F145C
:103570001414F4141010F010F000001F101F0000BD
:10358000001F14000000FC140000F010F01010FFE9
:1035900010FF141414FF141010101F00000000F08E
:1035A00010FFFFFFFFFFF0F0F0F0F0FFFFFF000063
:1035B000000000FFFF0F0F0F0F0F38444438447C0A
:1035C0002A2A3E147E02020606027E027E0263550D
:1035D0004941633844443C04407E201E2006027E5C
:1035E000020299A5E7A5991C2A492A1C4C7201726E
:1035F0004C304A4D4D303048784830BC625A463DD8
:103600003E494949007E0101017E2A2A2A2A2A448C
:10361000445F444440514A444040444A51400000C1
:10362000FF0103E080FF000008086B6B08361236CC
:103630002436060F090F06000018180000001010AD
:10364000003040FF0101001F01011E00191D17126B
:10365000003C3C3C3C000000000006030409080953
:1036600009030707080603060507080808080808ED
:1036700008080808030306060608090808080808D9
:10368000080808040808070A0808080808080808BD
:10369000080A0808080407040709040707070707BA
:1036A00006070704050604080708070806060507B5
:1036B00008080607070503050806CF2CBF2CAF2C0A
:1036C0009F2C8F2C7F2C6F2C5F2C4F2C3F2C2F2C62
:1036D0001F2C0F2CFF2BEF2BDF2BCF2BBF2BAF2B58
:1036E0009F2B8F2B7F2B6F2B5F2B4F2B3F2B2F2B4A
:1036F0001F2B0F2BFF2AEF2ADF2ACF2ABF2AAF2A40
:103700009F2A8F2A7F2A6F2A5F2A4F2A3F2A2F2A31
:103710001F2A0F2AEF29DF29CF29BF29AF299F2987
:103720008F297F296F295F293F292F291F290F29D9
:10373000FF28EF28DF28BF289F288F287F286F28A1
:103740005F284F283F282F281F280F28FF27EF2703
:10375000DF27CF27BF27AF279F278F277F276F27F9
:103760005F274F273F272F271F270F27FF26EF26EB
:10377000DF26CF26BF26AF269F26000000000000D0
:10378000000000000807BA365A36100D000000008D
:1037900000009F303F301A130000000000007F2F10
:1037A0001F2F30245F2EFF2D302F3F2DDF2C4B4954
:1037B00000000A0B02090C0D0E08070304010000AB
:1037C00000000000000000000000000000000000F9
:1037D00000000000000000000000000012111000B6
:1037E00000000000000000000000000000000000D9
:1037F00000000000000000002200250028002B002F
:103800002E003100340002010000050108010B0107
:1038100000002100240027002A002D003000330082
:1038200001010000040107010A010505050507055E
:1038300008080808020202020A0A0808040404042C
:103840000101010101010101030303030303030358
:10385000040707070C0C0C0C0C0C0C0C02020202E7
:1038600006060606060606060B0B0B0B0B0B0B0BD0
:103870000102102020080810204010204080020182
:103880000201080402010102040810204080804067
:103890002010080402018004020180402010080466
:1038A0000201080402010102040810204080010204
:1038B00004081020408021290A2D11241FBECFEFBB
:1038C000D1E2DEBFCDBF00E00CBF23E0AEE3B2E04B
:1038D00001C01D92A631B207E1F712E0A0E0B2E00C
:1038E000EEEAFEE500E00BBF02C007900D92AE339A
:1038F000B107D9F71CE1CCE5DCE100E006C0219777
:103900000109802FFE010E94272DCB35D10780E0D1
:103910000807A9F70E94AC290C94452F0C940000CD
:103920004817590728F4F82FE92FCA014F2F5E2FA7
:103930002617370728F4F62FE72FB9012F2F3E2F30
:10394000A1985F98EAE2E8B9A298A298A29A5F9A31
:1039500098B9A298A298A29A88B9A298A298A29A75
:1039600058B9A298A298A29A48B9A298A298A29AE5
:103970005F988BE288B9A298A298A29A5F9A78B9C8
:10398000A298A298A29A68B9A298A298A29A38B9C5
:10399000A298A298A29A28B9A298A298A29A5F98EF
:1039A0008CE288B9A298A298A29A5F9A0895A198E9
:1039B00012B888B9A298A298A29AA19A0895A1983B
:1039C0005F9812B888B9A298A298A29A5F9AA19A11
:1039D000089590E0FC01E059F74C2491865D974CE6
:1039E000FC018491882399F090E0880F991FFC01D5
:1039F000E05FF74CA591B491FC01EA50F84C859139
:103A000094918FB7F894EC91E22BEC938FBF0895CB
:103A1000FC01538D448D252F30E0842F90E0821BD4
:103A2000930B541710F0CF96089501970895FC0159
:103A3000918D828D981761F0A28DAE0FBF2FB11DB1
:103A40005D968C91928D9F5F9F73928F90E0089509
:103A50008FEF9FEF0895FC01918D828D981731F0C3
:103A6000828DE80FF11D858D90E008958FEF9FEF17
:103A70000895FC01918D228D892F90E0805C9F4FED
:103A8000821B91098F7399270895FC01A48DA80FBB
:103A9000B92FB11DA35ABF4F2C91848D90E0019690
:103AA0008F739927848FA689B7892C93A089B189B0
:103AB0008C91837080648C93938D848D981306C051
:103AC0000288F389E02D80818F7D80830895EF92B5
:103AD000FF920F931F93CF93DF93EC0181E0888FC8
:103AE0009B8D8C8D98131AC0E889F989808185FF98
:103AF00015C09FB7F894EE89FF896083E889F9893A
:103B000080818370806480839FBF81E090E0DF913B
:103B1000CF911F910F91FF90EF900895F62E0B8D8E
:103B200010E00F5F1F4F0F731127E02E8C8D8E1149
:103B30000CC00FB607FCFACFE889F989808185FFB0
:103B4000F5CFCE010E94451DF1CFEB8DEC0FFD2F7F
:103B5000F11DE35AFF4FF0829FB7F8940B8FEA896B
:103B6000FB8980818062CFCFCF93DF93EC01888D7A
:103B70008823B9F0AA89BB89E889F9898C9185FDE8
:103B800003C0808186FD0DC00FB607FCF7CF8C9176
:103B900085FFF2CF808185FFEDCFCE010E94451DCC
:103BA000E9CFDF91CF91089587E492E00E94391D1B
:103BB00021E0892B09F420E0822F089580E090E035
:103BC000892B29F00E94D41D81110E94000080E001
:103BD00090E0892B49F080E090E0892B29F00E9449
:103BE000000081110E94000080E090E0892B49F0E4
:103BF00080E090E0892B29F00E94000081110E9452
:103C0000000080E090E0892B49F080E090E0892B73
:103C100029F00E94000081110C9400000895282FC3
:103C200030E0F901E055F84C9491F901E059F74C76
:103C30004491265D374CF9012491222309F435C0C3
:103C4000992311F191509231F8F4E92FF0E088278F
:103C5000E35DF14E8F4F0C94272D5E1E621E3F1EBA
:103C6000561E5A1E441E651E6B1E6F1E751E791E43
:103C70007D1E831E871E441E8B1E911E951E8091E5
:103C800080008F7780938000E22FF0E0EE0FFF1F1F
:103C9000EA50F84CA591B4918FB7F894EC9161116A
:103CA00048C040954E234C938FBF0895809180006B
:103CB0008F7DE8CF80918000877FE4CF84B58F77B8
:103CC00084BDE2CF84B58F7DFBCF8091B0008F772C
:103CD0008093B000D9CF8091B0008F7DF9CF8091D3
:103CE00090008F7780939000CFCF809190008F7D50
:103CF000F9CF80919000877FF5CF8091A0008F77DA
:103D00008093A000C1CF8091A0008F7DF9CF8091DA
:103D1000A000877FF5CF809120018F7780932001CD
:103D2000B3CF809120018F7DF9CF80912001877FD3
:103D3000F5CF4E2BB8CFCF93DF93EC011B821A82C5
:103D40008AE092E09983888388E28B8F86E28C8F69
:103D500089E28D8F87E28E8F8CE28F8F89E20E94BD
:103D6000E91C61E08D8D0E940F1E8C8D0E94E91C64
:103D70008B8D0E94E91C8E8D0E94E91C61E08C8D68
:103D80000E940F1E61E08B8D0E940F1E61E08E8DE0
:103D90000E940F1E8F8D0E94E91C61E08F8D0E9492
:103DA0000F1E8FEF81B987B980E491E09E838D83E8
:103DB00080EE91E098878F831A8E1A8619861C866A
:103DC0001B8681E08F8B888F2FEF3FEF388B2F87FB
:103DD0001A8A198A1E861D8688A3198E86ED91E09F
:103DE0009C8B8B8B1AA219A2DF91CF9108953FB7BC
:103DF000F8948091430290914402A0914502B091C1
:103E0000460226B5A89B05C02F3F19F00196A11DBB
:103E1000B11D3FBFBA2FA92F982F8827BC01CD0114
:103E2000620F711D811D911D42E0660F771F881F73
:103E3000991F4A95D1F708958F929F92AF92BF92A2
:103E4000CF92DF92EF92FF924B015C010E94F71E2E
:103E50006B017C010E94F71E6C197D098E099F0978
:103E6000683E734081059105A8F321E0821A91080C
:103E7000A108B10888EEC80E83E0D81EE11CF11C31
:103E800081149104A104B10429F7FF90EF90DF9011
:103E9000CF90BF90AF909F908F900895AF92BF92B8
:103EA000CF92DF92EF92FF920F931F93CF93DF9306
:103EB0006C017B018B01040F151FEB015E01AE1835
:103EC000BF08C017D10759F06991D601ED91FC9157
:103ED0000190F081E02DC6011995892B79F7C50174
:103EE000DF91CF911F910F91FF90EF90DF90CF90D6
:103EF000BF90AF900895EF92FF920F931F93CF93CF
:103F0000DF93FC01CB01BA01E90145815681841799
:103F100095070CF094C027813085621773070CF069
:103F20008EC0209709F48BC00115110509F487C0D4
:103F3000FC01EC0FFD1F4E175F071CF4EA01C81BC4
:103F4000D90BAB01400F511F241735071CF4890111
:103F5000061B170B9B01200F311F21503109AC01AB
:103F60004C0F5D1F415051090E94901CF2B8E8B8F7
:103F7000C017D1072CF49C2F8D2FE801092F182F83
:103F8000C031D1050CF450C0CE014097AC0124E003
:103F9000569547952A95E1F760EF64039001659F78
:103FA000300D1124280F391F0150110908F446C0A3
:103FB000CE014097A298A298A29AA298A298A29AFB
:103FC000A298A298A29AA298A298A29AA298A2981D
:103FD000A29AA298A298A29AA298A298A29AA2980B
:103FE000A298A29AA298A298A29AA298A298A29AFB
:103FF000A298A298A29AA298A298A29AA298A298ED
:10400000A29AA298A298A29AA298A298A29AA298DA
:10401000A298A29A8031910564F6C901019720F215
:10402000A298A298A29AFACF0150110938F0CE01B5
:104030000197D0F3A298A298A29AFACFA19ADF9101
:10404000CF911F910F91FF90EF9008950F931F93C1
:10405000DC011596ED91FC9116976E177F070CF019
:104060008AC017968D919C91481759070CF083C010
:10407000CB01820F931FE817F9071CF49F01261B41
:10408000370BA1985F988AE288B9A298A298A29A61
:104090005F9A78B9A298A298A29A68B9A298A298B1
:1040A000A29AC9010197680F791F78B9A298A298BE
:1040B000A29A68B9A298A298A29A5F988BE288B94E
:1040C000A298A298A29A5F9A58B9A298A298A29A86
:1040D00048B9A298A298A29A58B9A298A298A29A6E
:1040E00048B9A298A298A29A5F988CE288B9A2983F
:1040F000A298A29A5F9A08B912B9203131059CF1B1
:1041000020513109A298A298A29AA298A298A29AA4
:10411000A298A298A29AA298A298A29AA298A298CB
:10412000A29AA298A298A29AA298A298A29AA298B9
:10413000A298A29AA298A298A29AA298A298A29AA9
:10414000A298A298A29AA298A298A29AA298A2989B
:10415000A29AA298A298A29AA298A298A29AA29889
:10416000A298A29ACACF2150310920F0A298A29811
:10417000A29AF9CFA19A1F910F910895DC0115968B
:10418000ED91FC9116976E177F0708F042C01796C5
:104190008D919C9148175907E0F5A1985F988AE2A4
:1041A00088B9A298A298A29A5F9A78B9A298A29880
:1041B000A29A68B9A298A298A29A78B9A298A2984D
:1041C000A29A68B9A298A298A29A5F988BE288B93D
:1041D000A298A298A29A5F9A58B9A298A298A29A75
:1041E00048B9A298A298A29A58B9A298A298A29A5D
:1041F00048B9A298A298A29A5F988CE288B9A2982E
:10420000A298A29A5F9A28B932B9A298A298A29AC3
:10421000A19A08952F923F924F925F926F927F9250
:104220008F929F92AF92BF92CF92DF92EF92FF92C6
:104230000F931F93CF93DF93CDB7DEB76B970FB676
:10424000F894DEBF0FBECDBFFC01A580B6806A1515
:104250007B050CF08CC0A780B0844A155B050CF080
:1042600086C02C2C312CFB0136E0C39EE00DF11DE5
:1042700011241E161F060CF07AC0F10133E0EE0F78
:10428000FF1F3A95E1F7E40FF51F1E161F060CF00D
:104290006EC0C986FD86EC8628016A017E836D8327
:1042A0004C01FC0141A152A14115510509F0F1C099
:1042B000F5E02F9F800111242985213009F084C069
:1042C0004E145F0409F480C09601285F3F4FAB0194
:1042D0004B5F5F4FB6018D819E810E94901C9801BB
:1042E000215A3E4CF901A491319654913196649132
:1042F000319674912C5F3F4FF90124919D85352DA6
:1043000048E081E0EA2FE82309F44AC048B832B90E
:10431000A298A298A29AE52FE82309F445C048B8CC
:1043200032B9A298A298A29AE62FE82309F440C0D5
:1043300048B832B9A298A298A29AE72FE823E1F1EF
:1043400048B832B9A298A298A29AE22FE823C1F104
:1043500048B832B9A298A298A29A880FEC85E8B919
:1043600092B9A298A298A29A415061F6A19A6B962E
:104370000FB6F894DEBF0FBECDBFDF91CF911F9176
:104380000F91FF90EF90DF90CF90BF90AF909F90F4
:104390008F907F906F905F904F903F902F900895F7
:1043A000FC85F8B992B9B4CFEC85E8B992B9B9CF28
:1043B000FC85F8B992B9BECFEC85E8B992B9C2CF05
:1043C000FC85F8B992B9C6CF2D813E813A83298305
:1043D000712C612CA801415A5E4C58874F8355E0DF
:1043E000E0E0651629F0EF81F885E60DF71DE49110
:1043F0006985613051F5B12CA12CED80FE80E60C71
:10440000F71C0E2F10E0E0FF08C09201A6014A0D34
:104410005B1DB701C4010E94BE20F801F595E79528
:104420007FEFA71AB70A88E0A816B10451F76FEF1B
:10443000661A760A89819A81820D931D9A838983EF
:1044400096E06916710459F692CF560198E09B8365
:104450002E2F30E03B872A877201E0FD06C04C8595
:104460005D854416550649F07A0181019101A50147
:1044700069817A81C4010E947B1FEA85FB85F595DD
:10448000E7955B8151505B83A20CB31C5111E0CFC7
:10449000CECFFA0134963491329785919491231BB3
:1044A000E7E02E9F800D911D1124FA012591349192
:1044B0003B8B2A8BFC0165907490FC013296A49092
:1044C000319634913F873196E491FC0135962491E1
:1044D0000696FC018491F985F23050F0422F022EAD
:1044E000000C550B5B874A87A82F082E000CBB0BCE
:1044F000A29DA001A39D500DB29D500D1124BA01A3
:104500006C0D7D1D798B688B1C821B821A8219822F
:10451000B12CC80ED11C87FDDA948D819E81820F4B
:10452000911D27FD9A959D878C878A2D90E0EA85BD
:10453000FB85E80FF91FFF8BEE8B2C853D85280F3F
:10454000391F398F288F3F854981431708F00FCFD6
:104550006B817C8188899989680F791F78876F833F
:104560001B8E1A8E90E080E0E981FA81EC0DFD1D32
:10457000FD8BEC8BFA8DFA1508F052C0B1100CC00F
:1045800093012F5F3F4FEA89FB89E60DF71D4491A8
:104590004E87390120E8B22E2E852B2141F001965D
:1045A000B694EA8DFB8D3196FB8FEA8FE3CF0097AF
:1045B000B9F35985513091F46C857D85EA8DFB8D79
:1045C0006E0F7F1F681B790B82019C014C895D89EE
:1045D000C4010E94262090E080E0E2CF289E900156
:1045E000299E300D389E300D11244A855B856A8DD9
:1045F0007B8D460F571F481B590B429DB001439DB1
:10460000700D529D700D11248D819E81680F791F50
:10461000720181014F815885C4010E947B1FDBCF4D
:10462000009781F0F985F130C9F4688D798D681BA8
:10463000790B82019C0149815A814C0D5D1DC40199
:104640000E942620E981FA813196FA83E9832B8141
:104650003C81220D331D3C832B8375CF289E900116
:10466000299E300D389E300D11244E895F89481BDC
:10467000590B429DB001439D700D529D700D112448
:104680008D819E81680F791F720181014F8158854C
:10469000C4010E947B1FD6CF2F923F924F925F9210
:1046A0006F927F928F929F92AF92BF92CF92DF9242
:1046B000EF92FF920F931F93CF93DF93CDB7DEB7A7
:1046C00068970FB6F894DEBF0FBECDBF2C017A837A
:1046D00069831A014901C801D2011F966D917C912D
:1046E000509751964D915C9152975896AC910130EC
:1046F000110509F053C0CA2E7A018B012981A4014A
:10470000B101C2010E940A21F20181A192A1009788
:10471000F1F4808DF6E08F9FC001112468960FB6EA
:10472000F894DEBF0FBECDBFDF91CF911F910F91E7
:10473000FF90EF90DF90CF90BF90AF909F908F90C1
:104740007F906F905F904F903F902F9008959C01C5
:104750002C5F3F4FF9014491E980FA804E151F0408
:1047600011F008F0C5C33196E491EE151F0408F46A
:10477000BFC3F9012491329785919491E21AF7E031
:10478000EF9E800D911D11240496FC018491D201AD
:104790005896EC918E9FC0011124C0CF09811A81D7
:1047A000005211097801EE0CFF1CFA82E982823076
:1047B000910509F013C1F701E654F94C25913491A4
:1047C0003E872D87F801E65AF94CE491EE2EF12C44
:1047D000FA82E982F0E16F2E712CD62EB72E142FBB
:1047E000F52E29813A81029709F075C2A29FC00176
:1047F000A39F900D1124FC01E20DF31DFC83EB83BC
:10480000F20125813681EB81FC81E217F30708F084
:1048100085CF89819A8106969C01E3E0359527959D
:10482000EA95E1F73C832B836417750709F0FDC017
:104830004D855E8558874F831E821D82B101695F59
:104840007F4F7A876987C10106969C878B87D10144
:104850001596BE87AD87F1013496F88BEF878101FD
:104860000D5F1F4F1A8B098B91012E5F3F4F3C8BC1
:104870002B8BA1014F5F5F4F5E8B4D8B6D817E81D6
:104880006615770509F42AC3D2015196ED90FC9084
:1048900052971F968D919C9150978E159F0589F088
:1048A00058960C9110E0E981FA810E9F90010F9FBC
:1048B000300D1E9F300D1124A401B101C2010E94D0
:1048C0007B1FB12CA12C63E0C62ED20158962C91EF
:1048D0005897EB81FC81AE16BF0609F4C8C1EF8181
:1048E000F885EA0DFB1DD490DD2009F473C0750135
:1048F00053E0EE0CFF1C5A95E1F7213009F00BC193
:10490000D7FE0AC01F962D913C91A401B1016E0DF6
:104910007F1DC2010E94BE20D6FE0BC0F20127857A
:104920003089A4016D897E896E0D7F1DC2010E94B0
:10493000BE20D5FE0CC0D2011F962D913C91A40142
:104940006B897C896E0D7F1DC2010E94BE20D4FE42
:104950000BC0F20127853089A40169897A896E0D1F
:104960007F1DC2010E94BE20D3FE0CC0D2011F9643
:104970002D913C91A4016F8578896E0D7F1DC20138
:104980000E94BE20D2FE0BC0F20127853089A4010F
:104990006D857E856E0D7F1DC2010E94BE20D1FEF9
:1049A0000CC0D2011F962D913C91A4016B857C8592
:1049B0006E0D7F1DC2010E94BE20D0FE0BC0F20111
:1049C0002785308969857A856E0D7F1DA401C20116
:1049D0000E94BE20EFEFAE1ABE0A77CFE6E0E89F56
:1049E0009001E99F300D1124F901E658F84CE5904B
:1049F000F490E981FA81EE0DFF1DE590F490FE86BA
:104A0000ED86F901E458F84CE590F490F801EE0DCC
:104A1000FF1DE4910E2F10E01A8309832258384CB1
:104A2000F9012491622E712CD8CEA13009F000CF6B
:104A3000D20117962D913C91C4010197860D971DC7
:104A40008217930718F0490186189708930121509F
:104A50003109280D391D4B815C8183E0440F551FBE
:104A60008A95E1F7420D531D41505109B401C1012E
:104A70000E94901CED85FE85FE83ED8330E020E0F2
:104A80006216730609F429C290E080E04B815C81D4
:104A90008417950709F414C1ED81FE81E80FF91F11
:104AA000E491E7FFF5C0B2B8D8B8A298A298A29A4C
:104AB000E6FFF1C0B2B8D8B8A298A298A29AE5FFD2
:104AC000EDC0B2B8D8B8A298A298A29AE4FFE9C003
:104AD000B2B8D8B8A298A298A29AE3FFE5C0B2B83B
:104AE000D8B8A298A298A29AE2FFE1C0B2B8D8B80A
:104AF000A298A298A29AE1FFDDC0B2B8D8B8A29855
:104B0000A298A29AE0FFD9C0B2B8D8B8A298A29849
:104B1000A29A0196BBCF30E02E9D80012F9D100DF3
:104B20003E9D100D1124020D131D188F0F8BD7FE03
:104B30000AC01F96ED90FC908901A4016F89788DC1
:104B4000C2010E947B1FD6FE0EC0F201208D30E014
:104B5000E784F0886F89788D620F731F8901A40143
:104B6000C2010E947B1FD5FE14C0D20158962C9121
:104B7000589730E01F96ED90FC90B901660F771FB3
:104B8000EF89F88D6E0F7F1F8901A401C2010E9479
:104B90007B1FD4FE14C0D20158968C915897282FB1
:104BA00030E01F96ED90FC906F89788D8C9D600DA4
:104BB000711D11248901A401C2010E947B1FD3FE33
:104BC00013C0F201208D30E0E784F088B901660F50
:104BD000771F660F771F0F89188D600F711F89016E
:104BE000A401C2010E947B1FD2FE15C0D2015896BB
:104BF0008C915897282F30E01F96ED90FC906F898C
:104C0000788DB5E08B9F600D711D11248901A40181
:104C1000C2010E947B1FD1FE12C0F201808D282F9D
:104C200030E0E784F0886F89788DF6E08F9F600D23
:104C3000711D11248901A401C2010E947B1FD0FEB5
:104C4000C9CED20158968C915897282F30E01F96E4
:104C5000ED90FC906F89788DB7E08B9F600D711D92
:104C600011248901A401C2010E947B1FB3CE820ED0
:104C7000911C0D811E810F5F1F4F1E830D832F819D
:104C800038854B815C81240F351F38872F83F6CD03
:104C9000F2B818B90ACFF2B818B90ECFF2B818B9ED
:104CA00012CFF2B818B916CFF2B818B91ACFF2B8B5
:104CB00018B91ECFF2B818B922CFF2B818B926CF5A
:104CC0002F5F3F4F6D817E818B819C81680F791FA3
:104CD0007E836D83D5CE269DF001279DF00D369DF8
:104CE000F00D1124FC83EB83A13091F56417750757
:104CF00009F448C0940121503109260D371DA10146
:104D00004150510969817A81460F571FB401C10191
:104D10000E94901CED85FE858B819C8118161906DA
:104D20000CF0DBC0849187FFC2C08F77B2B8D8B8CF
:104D30008F5FAB81BC81A81BB109BC83AB83982F6B
:104D4000943008F0B7C083708111C2C03196E4CFAF
:104D500064177507B9F0B0E0A69D8001A79D100DFE
:104D6000B69D100D112469817A81A69F9001A79F9D
:104D7000300DB69F300D11247A01A401B101C2019A
:104D80000E947B1FD2015896AC90AA9CE02C112463
:104D9000EF82AA940E2D03700B87712C612CEA2CE4
:104DA000F12CFA86E9860B811C81601671060CF0E5
:104DB00094C0ED85FE8584913196FE87ED8787FF4F
:104DC00072C08F77CC24C394C80EC30169817A81E5
:104DD0000E94132DAA2009F440C0D20158962C91AC
:104DE00030E0289F8001299F100D389F100D11245D
:104DF000020D131D269F7001279FF00C369FF00CAB
:104E00001124E80CF91CCD82BD81B150BD83BF3F98
:104E100009F129853A852E0D3F1D49855A85400F98
:104E2000511FB701C8010E94901CB2B8D8B8AA207F
:104E3000B9F18F818430B0F08450A298A298A29AE0
:104E4000A298A298A29AA298A298A29AA298A2988E
:104E5000A29AF0CF6C0C711CA6CF8101080F191F0C
:104E60007B01CFCF8B858150A2988F3FE1F7A29A2B
:104E7000F201808D90E0080F191F49815A81849FAB
:104E80009001859F300D949F300D1124220D331D0C
:104E90000217130708F4B8CFE80EF91E8101B4CF4A
:104EA000A298A298E4CF8F5F680E711C7CCFF2B8F5
:104EB00018B93ECF9450A298A298A29AA298A2980C
:104EC000A29AA298A298A29AA298A298A29A38CF3F
:104ED0008150A298A298A29A37CFA19AF201208D70
:104EE000E980FA802E9DC0012F9D900D112416CCD3
:104EF00090E080E013CCAF92BF92CF92EF92FF92FE
:104F00000F931F93CF93DF936D3071F1262F6A308B
:104F100009F420E2462FEC0189A19AA1009709F03B
:104F200071C00F89622F70E0CB018097023041F58C
:104F3000865A994CFC01849190E00696887FE0E1C6
:104F4000F0E0A88DB0E0AE9F5001AF9FB00CBE9FC7
:104F5000B00C11242B853C854A3061F52A0D3B1D90
:104F60003C872B871A86198681E090E0DF91CF91EC
:104F70001F910F91FF90EF90CF90BF90AF90089549
:104F8000F6E00F9F90011124F901E458F84CA59127
:104F9000B4918A0F9B1FFC018491F901E258F84CEF
:104FA000E49190E0F0E0013061F6E8E0F0E086E0C6
:104FB00090E0C7CF48A14423B1F0A89FA001A99FCA
:104FC000500DB89F500D112489859A85840F951F27
:104FD0004D815E818417950730F02A0D3B1D3C877B
:104FE0002B871A86198610E02B853C8549855A85C2
:104FF000CE010E944C2329853A85820F931F9A8700
:105000008987B2CF6A3079F41A861986FC01369600
:10501000E491288D8B859C85E29F800D911D112444
:105020009C878B87A1CFAC014C5F5F4FFA01349115
:10503000231708F499CF3196E491E21708F494CF3E
:10504000FA0144913297A590B490322F341BF7E0C7
:105050003F9FA00CB11C1124F5013296349131967A
:10506000E4913323A9F1EE2399F1C88CF50135962B
:10507000449158A1552309F1E32FF0E0E40FF11D0D
:1050800047FDFA95CE9EA001CF9E500D1124698553
:105090007A85460F571F6D817E81461757076CF042
:1050A0004B855C851A8619860696FC018491C89EFC
:1050B000400D511D11245C874B87E988FA880F85C4
:1050C00018894B855C8569857A85CE010E940A2105
:1050D000F5013496E491288D89859A85E29F800DAB
:1050E000911D11248CCF089590E080E008951F92C7
:1050F0000F920FB60F9211242F933F938F939F938C
:10510000AF93BF9380913F0290914002A0914102E2
:10511000B091420230913E0223E0230F2D3758F523
:105120000196A11DB11D20933E0280933F029093F2
:105130004002A0934102B0934202809143029091B9
:105140004402A0914502B09146020196A11DB11DF5
:105150008093430290934402A0934502B093460289
:10516000BF91AF919F918F913F912F910F900FBE63
:105170000F901F90189526E8230F0296A11DB11DD0
:10518000D2CF1F920F920FB60F9211240BB60F922F
:105190002F933F934F935F936F937F938F939F933F
:1051A000AF93BF93EF93FF9387E492E00E94451D76
:1051B000FF91EF91BF91AF919F918F917F916F91EF
:1051C0005F914F913F912F910F900BBE0F900FBEAB
:1051D0000F901F9018951F920F920FB60F921124E7
:1051E0000BB60F922F938F939F93EF93FF93E091C2
:1051F0005702F09158028081E0915D02F0915E02C9
:1052000082FD1DC09081809160028F5F8F7320911D
:105210006102821741F0E0916002F0E0E95BFD4F2E
:10522000958F80936002FF91EF919F918F912F91C5
:105230000F900BBE0F900FBE0F901F90189580819E
:10524000F2CF10924A021092490288EE93E0A0E059
:10525000B0E080934B0290934C02A0934D02B09328
:105260004E0286E192E0909348028093470285ECDB
:1052700090E0909354028093530284EC90E09093DA
:1052800056028093550280EC90E0909358028093F0
:10529000570281EC90E090935A028093590282EC7D
:1052A00090E090935C0280935B0286EC90E0909398
:1052B0005E0280935D021092600210926102109271
:1052C0006202109263021092E5021092E4021092C0
:1052D000E7021092E6021092E9021092E80261E001
:1052E00070E090E080E00E94542E0097E9F09093E7
:1052F000E5028093E4021092E7021092E602209108
:10530000E8023091E902232B11F4FC011082109283
:10531000E9021092E8026CE372E08091E40290915D
:10532000E5020E943E2F14C08091E4029091E502B4
:10533000009711F00E94CB2D1092E5021092E4022A
:105340001092E9021092E8021092E7021092E6022F
:105350008BEE92E00C949B1ECF93DF93CDB7DEB71C
:10536000A4970FB6F894DEBF0FBECDBF789484B576
:10537000826084BD84B5816084BD85B5826085BD51
:1053800085B5816085BD80916E00816080936E00DF
:1053900010928100809181008260809381008091D1
:1053A0008100816080938100809180008160809382
:1053B00080008091B10084608093B1008091B00042
:1053C00081608093B0008091910082608093910011
:1053D0008091910081608093910080919000816024
:1053E000809390008091A10082608093A1008091C1
:1053F000A10081608093A1008091A00081608093D2
:10540000A00080912101826080932101809121017F
:10541000816080932101809120018160809320012F
:1054200080917A00846080937A0080917A00826013
:1054300080937A0080917A00816080937A008091D5
:105440007A00806880937A001092C100CE010196A4
:105450000E949B1E8B819C819093EE028093ED02B3
:105460008D818093EF028E819F819093F1028093D2
:10547000F002888599859093F3028093F2028A85E1
:105480009B859093F5028093F4028C859D85909383
:10549000F7028093F6028E859F859093F9028093A0
:1054A000F802888999899093FB028093FA028A898D
:1054B0009B899093FD028093FC028C899D89909337
:1054C000FF028093FE028E89809300038F89809370
:1054D0000103888D80930203898D809303038A8D55
:1054E000809304038B8D809305038C8D809306033A
:1054F0008D8D809307038E8D809308039F8D9093ED
:10550000090398A190930A0399A190930B032AA1F0
:105510003BA130930D0320930C0361E00E940F1E0A
:1055200062E370E080E090E00E941C1F60E08091E8
:1055300008030E940F1E6AE070E080E090E00E9485
:105540001C1F61E0809108030E940F1E6AE070E05A
:1055500080E090E00E941C1F81E00E94DF1C80E040
:105560000E94D71C62E370E080E090E00E941C1F64
:1055700088E20E94DF1C80E00E94D71C80EC0E9421
:10558000DF1C8DE00E94D71C8DE00E94D71C81ECAF
:105590000E94DF1C83E40E94D71C80E00E94D71C7D
:1055A00082EC0E94DF1C80E00E94D71C85EC0E94E8
:1055B000DF1C80E00E94D71C88E40E94D71C86EB89
:1055C0000E94DF1C80E00E94D71C82E20E94D71C50
:1055D0008BE30E94D71C80EE0E94DF1C8FE00E94AC
:1055E000D71C84E20E94D71C8CE10E94D71C8AE061
:1055F0000E94D71C8FE00E94D71C88E00E94D71C15
:1056000083E40E94D71C88E80E94D71C82E30E9492
:10561000D71C8FE00E94D71C80E10E94D71C86E037
:105620000E94D71C8FE00E94D71C87E00E94D71CE5
:1056300080E00E94D71C81EE0E94DF1C8FE00E9458
:10564000D71C88E30E94D71C80E30E94D71C89E006
:105650000E94D71C8FE00E94D71C8FE00E94D71CAD
:105660008EE40E94D71C87E70E94D71C8CE30E941F
:10567000D71C87E00E94D71C80E10E94D71C85E0E0
:105680000E94D71C83E20E94D71C8BE10E94D71C8A
:1056900080E00E94D71C80E20E94DF1C86E30E940B
:1056A000DF1C8AE00E94D71C8AE30E94DF1C85E58C
:1056B0000E94D71C81E10E94DF1C66E970E080E057
:1056C00090E00E941C1F89E20E94DF1C69E170E0EB
:1056D00080E090E00E941C1F86E30E94DF1C81E0B6
:1056E0008093050388E60E94D71C20EE31E03093BA
:1056F000F1022093F00280E491E09093F302809312
:10570000F20230930F0320930E03909311038093C2
:105710001003F12CE12C00E411E050E040E070E0D7
:1057200060E08BEE92E00E947B1F8FEF9FEF9093E3
:10573000FB028093FA021092FD021092FC0280910B
:105740000403811107C02091F8023091F902232B44
:1057500009F4F5C0E4E9F7E3459154914052510949
:10576000A4E2B2E030E020E0ED91EE2339F0E40F66
:10577000F52FF11DE4912E0F311DF6CF809003031C
:10578000829E3001839E700C1124E7E9F7E3249197
:10579000289D202D1124E6E9F7E3E4918E9E400137
:1057A0001124815030E08B3008F0C2C0E82FF0E0C7
:1057B0008827E252F44D8F4F0C94272DE92BFA2BBA
:1057C000012C4A2C5A2C672C6C2C772C7F2C842C87
:1057D000902CC3019695879565E070E0681B790B66
:1057E00042E04CA385E090E05B0177FF16C0B12C4E
:1057F000A12C13C065E070E06619770983E08CA3E3
:10580000F1CFA4015695479585E090E0841B950B58
:10581000E1E0ECA3E5E0AE2EB12C4091F002509116
:10582000F102B501660D771D4617570718F45A01A6
:10583000A618B7086C0197FF02C0D12CC12C40916B
:10584000F2025091F302C401821B930B8C0D9D1D3B
:105850004817590718F46A01C818D90824E2422EDB
:1058600022E0522EF12CE12CF20161912F016623EE
:1058700009F472C0A5014E0D5F1D062E000C770BBA
:1058800004E010E096018BEE92E00E944C23E80EBB
:10589000F91EEACFA3015695479585E090E0BC013B
:1058A000641B750BA40156954795841B950BF2E07C
:1058B000FCA39ACF85E090E0BC0166197709A401AA
:1058C00056954795841B950B43E04CA38DCF85E0FF
:1058D00090E0881999099CCFA3015695479585E0DA
:1058E00090E0BC01641B750B88199909E0CF85E035
:1058F00090E0BC016619770988199909E5CF85E020
:1059000090E0821B930B84CFA3015695479585E0C9
:1059100090E0BC01641B750B821B930BF1E0C8CFB8
:1059200085E090E0BC0166197709821B930BCCCF10
:1059300081E08CA385E090E065E070E055CF912C8C
:10594000812C712C612CE1E0ECA335E0C32ED12C2D
:1059500045E0A42EB12C82CF8091F8029091F902FB
:105960006816790608F043C0E090FC02F090FD0252
:105970002091FA023091FB022E153F05C1F1B501CD
:10598000660D771DFCA1F23069F09C0126193709DC
:10599000F33039F5681779070CF4CB019C0126190F
:1059A00037091DC0861997099C01369527958401F2
:1059B000A6018BEE92E00E947B1F2091F8023091AD
:1059C000F9022619370936952795E090FC02F090E8
:1059D000FD02C5012A153B050CF4C901B501681B80
:1059E000790B8401A6018BEE92E00E947B1F4CE0B4
:1059F00050E06DE272E087E492E00E944E1F42E0C8
:105A000050E06AE372E087E492E00E944E1F0E9439
:105A1000DE1DFDCF8091E4029091E502009711F028
:105A20000C94CB2D0895AA1BBB1B51E107C0AA1FE4
:105A3000BB1FA617B70710F0A61BB70B881F991F2F
:105A40005A95A9F780959095BC01CD010895EE0F68
:105A5000FF1F881F8BBF0790F691E02D19940F93BD
:105A60001F93CF93DF938230910510F482E090E092
:105A7000E0911403F091150330E020E0B0E0A0E0E5
:105A8000309799F42115310509F44AC0281B390BC8
:105A900024303105D8F58A819B816115710589F122
:105AA000FB0193838283FE0111C0408151810281F9
:105AB000138148175907E0F04817590799F41097D0
:105AC00061F012960C93129713961C933296CF01A5
:105AD000DF91CF911F910F910895009314031093BC
